:020000040000FA
:10800000A0B601206DEB0000A562020041EB00006C
:1080100041EB000041EB000041EB000041EB0000B0
:1080200000000000000000000000000055E3000018
:1080300041EB000000000000E5E2000041EB000021
:10804000E9E30000E9E30000E9E30000E9E3000000
:10805000E9E30000E9E30000E9E30000E9E30000F0
:10806000E9E30000E9E30000E9E30000E9E30000E0
:10807000E9E30000E9E30000E9E30000E9E30000D0
:10808000E9E30000E9E30000E9E30000E9E30000C0
:10809000E9E30000E9E30000E9E30000E9E30000B0
:1080A000E9E30000E9E30000E9E30000E9E30000A0
:1080B000E9E30000E9E30000E9E30000E9E3000090
:1080C000E9E30000E9E30000E9E30000E9E3000080
:1080D000E9E30000E9E30000E9E30000E9E3000070
:1080E000E9E30000E9E30000E9E30000E9E3000060
:1080F000E9E30000E9E30000E9E30000E9E3000050
:10810000E9E30000E9E30000E9E30000E9E300003F
:10811000E9E30000E9E30000E9E30000E9E300002F
:10812000E9E30000E9E30000E9E30000E9E300001F
:10813000E9E30000E9E30000E9E30000E9E300000F
:10814000E9E30000FFFFFFFF4FF0FF0C1CEAD052F5
:108150001EBF1CEAD15392EA0C0F93EA0C0F6FD0AA
:108160001A4480EA010C400218BF5FEA41211ED088
:108170004FF0006343EA501043EA5111A0FB013174
:108180000CF00040B1F5000F3EBF490041EAD37149
:108190005B0040EA010062F17F02FD2A1DD8B3F1C5
:1081A000004F40EBC25008BF20F00100704790F034
:1081B000000F0CF0004C08BF49024CEA502040EA86
:1081C00051207F3AC2BFD2F1FF0340EAC25070474C
:1081D00040F400004FF00003013A5DDC12F1190F8A
:1081E000DCBF00F000407047C2F10002410021FAFC
:1081F00002F1C2F1200200FA02FC5FEA310040F114
:10820000000053EA4C0308BF20EADC70704792F08C
:10821000000F00F0004C02BF400010F4000F013AC4
:10822000F9D040EA0C0093F0000F01F0004C02BFBF
:10823000490011F4000F013BF9D041EA0C018FE72E
:108240000CEAD15392EA0C0F18BF93EA0C0F0AD034
:1082500030F0004C18BF31F0004CD8D180EA01005A
:1082600000F00040704790F0000F17BF90F0004FF3
:10827000084691F0000F91F0004F14D092EA0C0FD5
:1082800001D142020FD193EA0C0F03D14B0218BF68
:10829000084608D180EA010000F0004040F0FE40AE
:1082A00040F40000704740F0FE4040F4400070474A
:1082B00081F0004102E000BF83F0004330B54FEA97
:1082C00041044FEA430594EA050F08BF90EA020F04
:1082D0001FBF54EA000C55EA020C7FEA645C7FEA97
:1082E000655C00F0E2804FEA5454D4EB5555B8BFBA
:1082F0006D420CDD2C4480EA020281EA030382EA2B
:10830000000083EA010180EA020281EA0303362DBC
:1083100088BF30BD11F0004F4FEA01314FF4801C8F
:108320004CEA113102D0404261EB410113F0004FA1
:108330004FEA03334CEA133302D0524263EB430358
:1083400094EA050F00F0A780A4F10104D5F1200EF6
:108350000DDB02FA0EFC22FA05F2801841F1000151
:1083600003FA0EF2801843FA05F359410EE0A5F125
:1083700020050EF1200E012A03FA0EFC28BF4CF056
:10838000020C43FA05F3C01851EBE37101F000450C
:1083900007D54FF0000EDCF1000C7EEB00006EEB19
:1083A0000101B1F5801F1BD3B1F5001F0CD34908A3
:1083B0005FEA30004FEA3C0C04F101044FEA4452FA
:1083C00012F5800F80F09A80BCF1004F08BF5FEA81
:1083D000500C50F1000041EB045141EA050130BD61
:1083E0005FEA4C0C404141EB0101013C28BFB1F573
:1083F000801FE9D291F0000F04BF01460020B1FABE
:1084000081F308BF2033A3F10B03B3F120020CDA90
:108410000C3208DD02F1140CC2F10C0201FA0CF06E
:1084200021FA02F10CE002F11402D8BFC2F1200CD3
:1084300001FA02F120FA0CFCDCBF41EA0C01904089
:10844000E41AA2BF01EB0451294330BD6FEA0404D2
:108450001F3C1CDA0C340EDC04F11404C4F12002BD
:1084600020FA04F001FA02F340EA030021FA04F3CF
:1084700045EA030130BDC4F10C04C4F1200220FA26
:1084800002F001FA04F340EA0300294630BD21FA64
:1084900004F0294630BD94F0000F83F4801306BF2A
:1084A00081F480110134013D4EE77FEA645C18BF1E
:1084B0007FEA655C29D094EA050F08BF90EA020FB5
:1084C00005D054EA000C04BF1946104630BD91EAAD
:1084D000030F1EBF0021002030BD5FEA545C05D1B0
:1084E0004000494128BF41F0004130BD14F58004EF
:1084F0003CBF01F5801130BD01F0004545F0FE4163
:1085000041F470014FF0000030BD7FEA645C1ABF97
:10851000194610467FEA655C1CBF0B46024650EACE
:10852000013406BF52EA033591EA030F41F40021FA
:1085300030BD00BF90F0000F04BF0021704730B580
:108540004FF4806404F132044FF000054FF0000155
:1085500050E700BF90F0000F04BF0021704730B516
:108560004FF4806404F1320410F0004548BF4042EB
:108570004FF000013EE700BF42004FEAE2014FEA40
:1085800031014FEA02701FBF12F07F4393F07F4F1B
:1085900081F06051704732F07F4208BF704793F01E
:1085A0007F4F04BF41F40021704730B54FF4607431
:1085B00001F0004521F000411CE700BF50EA010234
:1085C00008BF704730B54FF000050AE050EA0102DD
:1085D00008BF704730B511F0004502D5404261EB4D
:1085E00041014FF4806404F132045FEA915C3FF48E
:1085F000D8AE4FF003025FEADC0C18BF03325FEA2B
:10860000DC0C18BF033202EBDC02C2F1200300FADB
:1086100003FC20FA02F001FA03FE40EA0E0021FA00
:1086200002F11444BDE600BF70B54FF0FF0C4CF4EE
:10863000E06C1CEA11541DBF1CEA135594EA0C0FA0
:1086400095EA0C0F00F0DEF82C4481EA030621EADB
:108650004C5123EA4C5350EA013518BF52EA033516
:1086600041F4801143F4801338D0A0FB02CE4FF0C8
:108670000005E1FB02E506F00042E0FB03E54FF0F8
:108680000006E1FB03569CF0000F18BF4EF0010EF0
:10869000A4F1FF04B6F5007F64F5407404D25FEAEC
:1086A0004E0E6D4146EB060642EAC62141EA55519F
:1086B0004FEAC52040EA5E504FEACE2EB4F1FD0CE1
:1086C00088BFBCF5E06F1ED8BEF1004F08BF5FEA5F
:1086D000500E50F1000041EB045170BD06F0004611
:1086E00046EA010140EA020081EA0301B4EB5C04BE
:1086F000C2BFD4EB0C0541EA045170BD41F48011B6
:108700004FF0000E013C00F3AB8014F1360FDEBFDA
:10871000002001F0004170BDC4F10004203C35DAB6
:108720000C341BDC04F11404C4F1200500FA05F339
:1087300020FA04F001FA05F240EA020001F00042DA
:1087400021F0004110EBD37021FA04F642EB060150
:108750005EEA430E08BF20EAD37070BDC4F10C047A
:10876000C4F1200500FA04F320FA05F001FA04F23E
:1087700040EA020001F0004110EBD37041F100012A
:108780005EEA430E08BF20EAD37070BDC4F1200535
:1087900000FA05F24EEA020E20FA04F301FA05F29D
:1087A00043EA020321FA04F001F0004121FA04F245
:1087B00020EA020000EBD3705EEA430E08BF20EA15
:1087C000D37070BD94F0000F0FD101F0004640004F
:1087D00041EB010111F4801F08BF013CF7D041EAD1
:1087E000060195F0000F18BF704703F000465200D5
:1087F00043EB030313F4801F08BF013DF7D043EAA6
:108800000603704794EA0C0F0CEA135518BF95EA5B
:108810000C0F0CD050EA410618BF52EA4306D1D1E2
:1088200081EA030101F000414FF0000070BD50EA01
:10883000410606BF1046194652EA430619D094EA8B
:108840000C0F02D150EA013613D195EA0C0F05D175
:1088500052EA03361CBF104619460AD181EA0301C9
:1088600001F0004141F0FE4141F470014FF0000081
:1088700070BD41F0FE4141F4780170BD70B54FF01C
:10888000FF0C4CF4E06C1CEA11541DBF1CEA13559C
:1088900094EA0C0F95EA0C0F00F0A7F8A4EB05047E
:1088A00081EA030E52EA03354FEA013100F0888075
:1088B0004FEA03334FF0805545EA131343EA12633E
:1088C0004FEA022245EA111545EA10654FEA0026F3
:1088D0000EF000419D4208BF964244F1FD0404F5AC
:1088E000407402D25B084FEA3202B61A65EB030508
:1088F0005B084FEA32024FF480104FF4002CB6EBC5
:10890000020E75EB030E22BFB61A754640EA0C0044
:108910005B084FEA3202B6EB020E75EB030E22BF84
:10892000B61A754640EA5C005B084FEA3202B6EBC5
:10893000020E75EB030E22BFB61A754640EA9C0084
:108940005B084FEA3202B6EB020E75EB030E22BF54
:10895000B61A754640EADC0055EA060E18D04FEA12
:10896000051545EA16754FEA06164FEAC30343EAB2
:1089700052734FEAC2025FEA1C1CC0D111F4801F7F
:108980000BD141EA00014FF000004FF0004CB6E778
:1089900011F4801F04BF01430020B4F1FD0C88BF17
:1089A000BCF5E06F3FF6AFAEB5EB030C04BFB6EB22
:1089B000020C5FEA500C50F1000041EB045170BD15
:1089C0000EF0004E4EEA113114EB5C04C2BFD4EB42
:1089D0000C0541EA045170BD41F480114FF0000EC6
:1089E000013C90E645EA060E8DE60CEA135594EA42
:1089F0000C0F08BF95EA0C0F3FF43BAF94EA0C0F45
:108A00000AD150EA01347FF434AF95EA0C0F7FF4B9
:108A100025AF104619462CE795EA0C0F06D152EA0D
:108A200003353FF4FDAE1046194622E750EA4106F1
:108A300018BF52EA43067FF4C5AE50EA41047FF402
:108A40000DAF52EA43057FF4EBAE12E74FEA410265
:108A5000B2F1E04324BFB3F5001CDCF1FE5C0DD99C
:108A600001F0004C4FEAC0024CEA5070B2F1004FE6
:108A700040EB830008BF20F00100704711F0804FE9
:108A800021D113F13872BCBF01F00040704741F4AE
:108A900080114FEA5252C2F11802C2F1200C10FAB2
:108AA0000CF320FA02F018BF40F001004FEAC12396
:108AB0004FEAD32303FA0CFC40EA0C0023FA02F33A
:108AC0004FEA4303CCE77FEA625307D150EA013310
:108AD0001EBF4FF0FE4040F44000704701F00040E0
:108AE00040F0FE4040F40000704700BF80F00040BE
:108AF00002E000BF81F0004142001FBF5FEA410376
:108B000092EA030F7FEA226C7FEA236C6AD04FEA75
:108B10001262D2EB1363C1BFD218414048404140BA
:108B2000B8BF5B42192B88BF704710F0004F40F46C
:108B3000000020F07F4018BF404211F0004F41F488
:108B4000000121F07F4118BF494292EA030F3FD054
:108B5000A2F1010241FA03FC10EB0C00C3F1200367
:108B600001FA03F100F0004302D5494260EB4000F6
:108B7000B0F5000F13D3B0F1807F06D340084FEA61
:108B8000310102F10102FE2A51D2B1F1004F40EB56
:108B9000C25008BF20F0010040EA030070474900BE
:108BA00040EB0000013A28BFB0F5000FEDD2B0FA5B
:108BB00080FCACF1080CB2EB0C0200FA0CF0AABF7E
:108BC00000EBC25052421843BCBFD040184370471C
:108BD00092F0000F81F4000106BF80F40000013222
:108BE000013BB5E74FEA41037FEA226C18BF7FEAF9
:108BF000236C21D092EA030F04D092F0000F08BF3B
:108C00000846704790EA010F1CBF0020704712F021
:108C10007F4F04D1400028BF40F00040704712F160
:108C200000723CBF00F50000704700F0004343F0C5
:108C3000FE4040F4000070477FEA226216BF0846FB
:108C40007FEA23630146420206BF5FEA412390EABE
:108C5000010F40F4800070474FF0000304E000BFB4
:108C600010F0004348BF40425FEA000C08BF704765
:108C700043F0964301464FF000001CE050EA010229
:108C800008BF70474FF000030AE000BF50EA01023E
:108C900008BF704711F0004302D5404261EB41012B
:108CA0005FEA010C02BF84460146002043F0B64350
:108CB00008BFA3F18053A3F50003BCFA8CF2083A75
:108CC000A3EBC25310DB01FA02FC634400FA02FC7E
:108CD000C2F12002BCF1004F20FA02F243EB020085
:108CE00008BF20F00100704702F1200201FA02FCE7
:108CF000C2F1200250EA4C0021FA02F243EB0200DA
:108D000008BF20EADC70704753B94AB9002908BF90
:108D100000281CBF4FF0FF314FF0FF3000F00CB8BF
:108D2000ADF1080C6DE904CE00F008F8DDF804E0C0
:108D3000DDE9022304B07047704700BF2DE9F0471A
:108D400086468C460846089E154674461946002BF2
:108D500040F0C1808542B2FA82F245D94AB1C2F1EF
:108D6000200300FA02FC954094402EFA03F343EAF4
:108D70000C0C4FEA154EA8B2230CBCFBFEF80EFB00
:108D800018CC08FB00F943EA0C43994528D9EB18A5
:108D900008F1FF3704D2994502D9A8F102072B4404
:108DA000A3EB0903A4B2B3FBFEFC0EFB1C330CFBCC
:108DB00000F044EA0344A04214D92C190CF1FF330B
:108DC00004D2A04202D9ACF102032C44241A43EA93
:108DD00007401EB1D440002334607360BDE8F087C3
:108DE0004746DDE76346F1E792BB431B01214FEAAB
:108DF000154EAFB2200CB3FBFEFC0EFB1C330CFB7C
:108E000007F840EA0343984561D9EB180CF1FF30AD
:108E100004D2984502D9ACF102002B44A3EB08031D
:108E2000A4B2B3FBFEFC0EFB1C330CFB07F744EAB9
:108E30000344A7424DD92C190CF1FF3304D2A742A9
:108E400002D9ACF102032C44E41B43EA0040C0E722
:108E5000C2F120039540944020FA03F12EFA03F367
:108E60004FEA154E9040AFB20343B1FBFEFC0EFB40
:108E70001C10190C0CFB07F841EA0041884522D967
:108E800069180CF1FF3004D2884502D9ACF1020018
:108E90002944A1EB08019BB2B1FBFEFC0EFB1C11A7
:108EA0000CFB07F743EA01439F420ED9EB180CF184
:108EB000FF3104D29F4202D9ACF102012B44DB1BEB
:108EC00041EA004193E76046E3E76146F7E7604621
:108ED000A4E76346B8E7834206D916B900210846DD
:108EE0007CE7C6E900E0F9E7B3FA83F78FB983427C
:108EF00001D3724508D8BEEB020460EB03030120E6
:108F00009C461EB9002169E73846FAE7C6E9004CDD
:108F1000F8E7C7F1200CBB400EFA07F522FA0CF473
:108F20002EFA0CF1BA401C4320FA0CF3B8404FEA79
:108F3000144901431FFA84FEB3FBF9F809FB18300A
:108F40000B0C08FB0EFA43EA00439A4540D9E3189C
:108F500008F1FF3004D29A4502D9A8F10200234457
:108F6000A3EB0A0389B2B3FBF9F809FB183308FB3A
:108F70000EFE41EA03418E452CD9611808F1FF33FA
:108F800004D28E4502D9A8F10203214443EA0040ED
:108F9000A1EB0E01A0FB02984145CE46434602D309
:108FA00006D14D4504D20138B9EB020E68EB04033B
:108FB000002EA7D0B5EB0E0261EB030101FA0CFC09
:108FC00022FA07F3F9404CEA0303C6E9003199E7B6
:108FD0004046C5E74346D9E710F8012B11F8013B9D
:108FE000012A28BF9A42F7D0D01A7047034611F8D9
:108FF000012B03F8012B002AF9D17047034613F81F
:10900000012B002AFBD1181A01387047000000001C
:1090100000232DE9F04186B000AFC7E904330423F3
:109020000D4606467B60002800F0E480002900F031
:10903000E180062107F1100021F061FA044698B1A1
:109040006D4688B06A46704B4FF4C251C2E9053094
:1090500003236E4842F8103F21F08BFBAD462046BB
:109060001837BD46BDE8F081014607F110023046D1
:1090700021F042FA044698B16D4688B06A46644BC6
:10908000C2E9053403234FF4C251604842F8103F4F
:1090900021F06FFBAD4607F1100021F043FADEE747
:1090A0003A46012107F1100021F0F0FA044620B100
:1090B0006D4688B06A46574BE2E73B680BB3042B1A
:1090C00025D0052B0CBF0923FF232B7003213B1D4B
:1090D00007F1080207F1100021F006FB0646C0B1B7
:1090E0006C4688B06A464C4BC2E9053603234FF400
:1090F000C251464842F8103F21F03BFBA54634469A
:10910000C9E7002300202B706860A860C3E707232D
:10911000DBE77B68002BF4D018333B4403F8100CDA
:109120000146022207F108001BF096FD2B78C0B221
:10913000092B08D10F282AD96FF015046D4688B085
:109140006A46364B9CE70F28F6D8072B27D1344BBD
:10915000DFF8D08033F81000F8B1FFF7FBF928A34F
:10916000D3E90023FFF760FAFFF770FC0421686081
:109170007B1807F1080207F11000796021F0B4FABA
:10918000064678B16C4688B06A46274BACE7274B59
:10919000DFF89C8033F81000DEE72648E6E76FF042
:1091A0007F04CBE77B68014618333B4403F8100C7F
:1091B000022207F108001BF04FFDC0B20F2811D9A1
:1091C0006C4688B06A461C4B4FF4C251C2E9053068
:1091D00003230E4842F8103F21F0CBFAA5466FF06A
:1091E000150458E70130C0B2FFF73AFD4146FEF7DB
:1091F000ABFF8AE76FF0150431E700BFAFF30080E3
:109200007B14AE47E17A2440021A03005CC90200D5
:109210002B1A0300541A0300761A0300A21A030043
:10922000A8D302000AD7A33FC61A030088D30200BE
:109230000AD723400AD7A340F11A030070B50F4B99
:10924000186820F0ABFC002816DD4FF47A734FF459
:10925000004503FB00F4002140F2E7304FF47A723E
:109260000023E4FB0501FFF74FFDBDE87040024617
:109270000B46034818F08EBD70BD00BF881D01204D
:109280008005012002460B46014817F0C9BD00BF0A
:10929000700B0120014817F093BE00BF700B012036
:1092A000B0B5044600AF006807F0EAFD02210122D4
:1092B000206820F0BEFB0146A0B16D4688B06A462A
:1092C000174BC2E9053003234FF4C251154842F849
:1092D000103F1CF0A7F91448AD4621681CF09EF918
:1092E000BD46B0BD0122206820F0A3FB30B16D4621
:1092F00088B06A460A4BC2E90530E4E720610B48B2
:1093000021F066FA20B16D4688B06A46084BF2E754
:10931000084811F0B7FC2268074B1A60E0E700BF6D
:10932000C8D302004CC90200020007D2C595000054
:10933000E8D302002B560200881D0120B0B500AF13
:1093400022F0E9FBA8B90EF083FE044688B16D4611
:1093500088B06A460C4BC2E9053403234FF4C2516E
:109360000A4842F8103F1CF05DF9AD462046BD4664
:10937000B0BD21F0F6F904460028F7D06D4688B05C
:109380006A46034BE7E700BF0AD402004CC902005B
:1093900020D40200B0B5152000AF12F059F80446F1
:1093A00088B16D4688B06A46084B4FF4C251C2E995
:1093B00005300323064842F8103F1CF033F9AD4650
:1093C0002046BD46B0BDFFF739FFF9E737D40200AC
:1093D0004CC90200B0B50D4800AF18F0E1FC1420F4
:1093E00012F036F8044670B16D4688B06A46084BF4
:1093F0004FF4C251C2E905300323064842F8103F3A
:109400001CF010F9AD462046BD46B0BD80050120D8
:1094100037D402004CC9020010B5064C064821683A
:109420001CF0FCF8206807F02BFDBDE81040002080
:10943000FFF7D0BF881D0120020007D298B500AF0A
:109440006C46D0E9001388B06A46D361042307480C
:10945000C2E905014FF40151054842F8103F1CF0E4
:10946000E1F8A546FFF7D8FFBD4698BD57D40200E6
:109470004CC90200B0B5002000AFFFF7ABFF0D4CA8
:1094800090B16D4688B06A460B4B4FF4C251C2E9A9
:1094900005300323094842F8103F1CF0C3F8084880
:1094A000AD4621681CF0BAF8216806481CF0B6F8F1
:1094B000BD46B0BD881D012073D402004CC9020016
:1094C000020007D2010007D2B0B5224B00AF5A7894
:1094D0009AB19A788AB1A0B958701F4C99702068D7
:1094E00007F0CEFC22F017FB68B10021206820F0C5
:1094F000C1FAB8B1FFF7A2FE05E030B95870997013
:1095000001E00029E9D0BD46B0BD01225A70002912
:10951000F5D09A70104B186807F0DCFC0F4818F073
:109520003FFCF0E7FFF756FF0028ECD06D4688B00F
:109530006A460B4B4FF4C251C2E905300323094878
:1095400042F8103F1CF06EF80748AD4621681CF049
:1095500065F8D8E770090120881D012080050120E9
:1095600073D402004CC90200020007D210B50446B1
:109570004FF0FF314FF0FF30FFF784FE054B9A7834
:10958000A24203D021465878FFF79EFFBDE8104065
:10959000FFF780BE7009012010B504464FF0FF317F
:1095A0004FF0FF30FFF76EFE054B5A78A24203D012
:1095B00020469978FFF788FFBDE81040FFF76ABEA4
:1095C0007009012090B587B000AF05295CD8DFE8AD
:1095D00001F0150324455015334B186800F00CF9C1
:1095E00010F13D0F0DD1314B4FF484517B610223BB
:1095F0002F4807F110023B611CF014F81C37BD46E0
:1096000090BD30B16C4688B06A462A4BC2E905303D
:1096100018E00120FFF7C0FFF0E7234C206800F0BE
:10962000B1F920B16C4688B06A46234BEEE720685A
:1096300000F0BEF90028EDD06C4688B06A461F499C
:10964000C2E9051003234FF4C251194842F8103FF4
:109650001BF0E8FFA546FFF7DFFECFE7124B1868C7
:1096600000F024F90028C9D06C4688B06A46144B33
:10967000CCE70D4B186800F09BF90028BED06C4673
:1096800088B06A460D4BC1E76C4688B06A460D4B00
:109690000748C2E9053103234FF4C25142F8103F95
:1096A0001BF0C0FFA546A9E7881D01209AD402003F
:1096B0004CC90200BFD40200D8D40200F4D4020086
:1096C00010D5020029D50200B0B586B04FF0FF30AA
:1096D0004FF0FF3100AFFFF7D5FD1C4B1C78FFF7B3
:1096E000D9FD012C16D10EF0E7FC044670B16D4691
:1096F00088B06A46164BC2E9053403234FF4C251C1
:10970000144842F8103F1BF08DFFAD462046183735
:10971000BD46B0BD022C0AD10020FFF75BFE044617
:109720000028F3D06D4688B06A460B4BE3E70B4B3D
:109730004FF482517B610223064807F110023B611E
:109740006FF085041BF06EFFE0E700BF7009012099
:1097500042D502004CC9020065D502008DD5020039
:1097600010B5012986B022D1012B1BD84FF0FF3054
:109770004FF0FF311478FFF785FD0E4B1C70013C54
:10978000FFF788FD012C10D90B4B0C4805930223E1
:109790004FF4825104AA04931BF044FF6FF00800B9
:1097A00006B010BD6FF06800FAE70020F8E76FF030
:1097B0006C00F5E7700901208DD502004CC902004C
:1097C000012910B5144612D11A6812B96FF0680059
:1097D00010BD4FF0FF3019604FF0FF31FFF752FD21
:1097E000044B1B782370FFF755FD0020F0E76FF066
:1097F0006C00EDE77009012070B500240646A2B0A8
:109800001822214608A8CDE90044CDE9024422F0FF
:10981000C2FD002E3DD0242221460FA80E9422F036
:10982000BAFD2422214619A8189422F0B4FD1C493F
:109830001C4818AB0EAA15F06DFAA04219DD0120E4
:1098400004AA0EA91CF017FD0128054603D06FF0ED
:109850003C0022B070BD10220EA9684622F075FCB3
:109860006846FFF7CBFB08AA014668461DF02DFBB2
:1098700010B96FF00D00ECE723460322304609A92A
:1098800007F034F940B1084B099A20461A601D755B
:10989000DFE76FF01500DCE76FF01200D9E700BFDB
:1098A000B1D50200DED502008C1D012070B5002468
:1098B0000546A8B0242221460BA80A9422F06BFD8D
:1098C0001822214604A822F066FD002D4ED0214624
:1098D000242215A8149422F05EFD214624221FA8FC
:1098E0001E9422F058FD244924481EAB14AA15F0FA
:1098F00011FA041E15DD02206A4614A91CF0BBFCF7
:10990000012811D1282214A90DEB020022F01DFC20
:109910000AA8FFF773FB04AA01460AA81DF0D5FAAE
:1099200090B96FF00D0003E0012C03D16FF03C0003
:1099300028B070BD02206A461EA91CF09CFC0128BC
:10994000F4D128221EA9DFE705AC0023032221461B
:10995000284606F009FC60B194E80F00084E351D5A
:1099600085E80F00012300207375E1E76FF0150013
:10997000DEE76FF01200DBE7B1D50200DED50200B2
:109980008C1D012010B550B1084C237D2BB1214610
:1099900007F0FAF830B100232375002010BD6FF0F6
:1099A0001500FBE76FF00D00F8E700BF8C1D0120EC
:1099B00010B550B1084C637D2BB1211D06F0BEFCE3
:1099C00030B100236375002010BD6FF01500FBE778
:1099D0006FF00D00F8E700BF8C1D0120B0B54FF00F
:1099E000FF3488B000AF4FF40042002339461948D5
:1099F0003C600CF069FE48B36D4688B06A46164B71
:109A0000C2E90530032342F8103F00234FF4C2514E
:109A1000124802F04DFD4FF4A022AD46002310483D
:109A2000391D7C600CF050FE80B10E4BFB610223AF
:109A3000BB6100234FF48251084807F1180202F07D
:109A400037FD02F0CBFB002002F09AF92037BD462B
:109A5000B0BD00BF08CB0200FAD50200A4CA0200C4
:109A6000CCCA020013D6020090B589B01D4800AFE1
:109A700010F08EF858B36C4688B06A461A4BC2E9AB
:109A80000530032342F8103F00234FF4C25117481A
:109A900002F00EFD4FF0FF33A5467B604FF4A0228D
:109AA00000231348391D0CF00FFEC0B1114BFB61B0
:109AB0000223BB6100234FF482510C4807F11802C6
:109AC00002F0F6FC02F08AFB002002F059F9FFF7E1
:109AD00085FF00214FF4F01019F016FAF7E724374C
:109AE000BD4690BD4756020052D60200A4CA0200ED
:109AF000CCCA020013D602002DE9F041344DA2B0C9
:109B0000344E00AF4FF0FF324FF0FF333946284656
:109B10000CF098FE044618B18837BD46BDE8F081C8
:109B20003B68B342EED164222B4907F1240022F0B6
:109B30000BFC22F031F94FF47A72A0FB020302FB16
:109B40000133C00B40EA43436421244A07F1240057
:109B50001AF058FF63282CD9E84688B06A46204B93
:109B6000C2E90530032342F8103F4FF4C2512346A7
:109B70001C4802F09DFC4FF0FF33C5467B604FF45C
:109B8000A02200231848391D0CF09EFD0028B9D0F2
:109B9000164BFB610223BB614FF4825123461148EF
:109BA00007F1180202F084FC02F018FB204602F0D4
:109BB000E7F84FF4004200230D4807F124010CF0B0
:109BC00083FD00289ED0E84688B06A46094BC7E767
:109BD000BC0E012008CB020078CB020085D6020023
:109BE000A7D6020084CA0200CCCA020013D6020023
:109BF000F4CA0200CED60200B0B52748274B88B081
:109C00004360274B00AF036107F0D6FC2548264B85
:109C10006D464360254B036107F0CEFC0224244BC4
:109C2000BC61FB61234800234FF4865107F1180201
:109C300002F03EFC01200CF07DFC48B388B06A467F
:109C40001D4BC2E90530032342F8103F00234FF4B7
:109C5000C251184802F02CFC4FF0FF33AD467B6038
:109C60004FF4A02200231548391D0CF02DFD78B1CA
:109C7000134BC7E9064300234FF482510D4807F107
:109C8000180202F015FC02F0A9FA002002F078F8A0
:109C90002037BD46B0BD00BFC01D0120399D00006A
:109CA000030014F1AC1D0120299D0000020007D221
:109CB000FED602005CCA02003AD70200CCCA0200FB
:109CC00013D6020010B588B00224134B06940793F4
:109CD00000234FF48251114806AA02F0E9FB4FF02D
:109CE000FF334FF4A02201930D48002301A90CF08B
:109CF000EBFC70B10B4BCDE9064300234FF48251CE
:109D0000064806AA02F0D4FB02F068FA002002F02E
:109D100037F808B010BD00BF58D702005CCA020077
:109D2000CCCA020013D60200024B994201D1FFF7C0
:109D3000C9BF7047020007D290B52E4B89B0994237
:109D400000AF05D00133994246D02437BD4690BDBF
:109D5000294BFB610223BB6100234FF48651274846
:109D600007F1180202F0A4FB0123FB704FF400423C
:109D700000232348F91C0CF0A7FC0028E5D06C4612
:109D800088B06A461F4BC2E90530032342F8103FF2
:109D900000234FF4C251194802F08AFB4FF0FF3301
:109DA000A5467B604FF4A02200231748391D0CF014
:109DB0008BFC0028C9D0154BFB610223BB6100233B
:109DC0004FF482510D4807F1180202F071FB02F0C6
:109DD00005FA002001F0D4FF0D4BFB610223BB61AB
:109DE00000234FF48651054807F1180202F060FB8A
:109DF0000023BAE7010014F176D702005CCA020022
:109E0000E0CA0200FAD50200CCCA020013D6020052
:109E100097D702000149024805F0A4B9F8CB020027
:109E2000D41D01200149024805F09CB9E8CB02008D
:109E3000D41D012010B5037D044633B902690B4BD4
:109E40009A4212D10A4817F0ABFF237D012B0CD1A7
:109E50002269064B9A4208D1BDE810404FF42032E7
:109E600000230349034817F021BF10BDE0CA0200D8
:109E7000B005012010110120037D012B05D1002226
:109E800000230249024817F011BF7047B0050120B6
:109E9000101101202DE9F0430024AFB002AF1022D1
:109EA000002107F1380022F076FA6E4B6E48FB6213
:109EB0006E4B3B636E4B7B636E4BFB6317F0CCFDCD
:109EC00069486FF00F034FF480526B49009417F00C
:109ED000DDFD07F12C0013F0BDF848B36D4688B0E6
:109EE00002AA664B4FF4C251C2E90530032364480D
:109EF00042F8103F1BF0AEFB4FF0FF33AD463B6125
:109F00004FF4A02200235F4807F110010CF0DCFBA6
:109F100010B35D4B07F15802FB650223BB6558483F
:109F20004FF482511BF096FB1BF092FB00204DE09A
:109F3000564957481CF0FAF9DFF85881544EDFF8BB
:109F400058914FF0FF324FF0FF33404607F10801C0
:109F50000CF078FC054618B1B437BD46BDE8F08377
:109F6000BB684B45336140D14FF400420023484663
:109F7000F91D0CF017FC58B36E4688B002AA474B87
:109F80004FF4C251C2E9053003233D4842F8103F67
:109F90001BF060FB4FF0FF33B546FB604FF4A0228F
:109FA0000023384807F10C010CF08EFB0028D3D0B9
:109FB000354B33487B6202234FF482513B6207F1F9
:109FC00020021BF047FB1BF043FB284601F0D8FEA4
:109FD000FB79304633751CF0B5F930B16D4688B069
:109FE00002AA2F4BC2E9053011E0B8682D4B984208
:109FF000A7D14FF40042002307F148010CF0D2FB37
:10A0000010B36D4688B002AA244BC2E90530032381
:10A010004FF4C25142F8103F19481BF01BFB4FF0A0
:10A02000FF33AD46FB604FF4A0220023154807F133
:10A030000C010CF049FB00288ED0134B07F12002D5
:10A040007B6202233B626AE76422174807F14801FA
:10A0500022F07AF90E481CF075F900283FF46FAF32
:10A06000BCE700BF259E000010110120159E0000D6
:10A07000ADA0000001A10000606E0120C1D7020068
:10A080009CCA0200CCCA020013D60200F8CB020020
:10A09000D41D0120C40E0120E0CA0200DDD7020059
:10A0A000F7D70200F4CA0200E91D0120B0B584B060
:10A0B00000AF07F1100404E903008CB0C7E90023E6
:10A0C0001C46D7E9023110466A465362084B094DD7
:10A0D0009362094BC2E90701C2E905544FF4635189
:10A0E000064842F8103F1BF0B5FA1037BD46B0BD28
:10A0F0000103030510D80200060000029CCA0200FA
:10A1000098B540F6A513984200AF15D1A9B96C4691
:10A1100088B06A46154B4FF4E6515361144B936176
:10A120004FF400739383134B42F8103F12481BF017
:10A1300091FAA546BD4698BD59B16C4688B06A46AD
:10A140000E4BC2E9053103234FF4C25142F8103FD0
:10A15000ECE76C4688B06A46094B4FF4C451C2E93B
:10A160000530032342F8103FE0E700BF36D8020075
:10A170001F300120030000019CCA02004DD80200DC
:10A1800072D802002DE9F04389B0E84600AF474B92
:10A190004FF48651FB6102234548BB6107F1180269
:10A1A0001BF058FA88B06C464FF400792546414BB5
:10A1B000414E6361414BA4F81C90A36145F8106FB8
:10A1C0002A464FF4E6513A481BF044FAC546A546E4
:10A1D0003B4B2A4663613B4B4FF4E6513448A36145
:10A1E000A4F81C9026611BF035FAC546A546364BEF
:10A1F0002A46636142F2B323A36103234FF4C6519D
:10A200002B4823611BF026FAC546A5462F4BA4F820
:10A210001C9063612E4B2661A36100242A464FF4F3
:10A22000E65123481BF016FA2A48C54617F0B8FD38
:10A2300029483C61B860FEF7E1FE07F108033B6086
:10A24000264B274DDFF86880F8607B60BB889C4216
:10A2500016D3384613F0E2F870B16C4688B06A46FF
:10A26000204B4FF4C251C2E905300323104842F895
:10A27000103F1BF0EFF9A5462437BD46BDE8F0833B
:10A280000C2363433A68E94688B0D3586A46C2E96A
:10A2900005534FF400734FF4E6519383404642F860
:10A2A000106F1BF0D7F90134CD46CFE796D80200E6
:10A2B0009CCA0200AFD8020003000001BCD8020013
:10A2C000F0D80200AD300120FED8020007D902000C
:10A2D0000FD90200B00501201F3001200100A5099F
:10A2E00013D9020026D90200F0B587B0027D0446DA
:10A2F000036900AF3AB9274A934204D113F03CF8FE
:10A300001C37BD46F0BD244A9342F9D110220021EA
:10A3100007F1080022F03FF820483860FEF76EFE93
:10A320000123786004F115003B72F860FEF766FEC9
:10A33000386121F031FD4FF47A7343433846DB0B2B
:10A34000BB8213F0B1F878B16C4688B06A46144B02
:10A350004FF4C451C2E90530032342F8103F1148BD
:10A360001BF078F9A546CBE76C46D7E90305D7E99A
:10A3700000318CB06A4653620B4B0C4E93620C4B0F
:10A38000C2E90701C2E905654FF4635142F8103F85
:10A39000E5E700BFE0CA0200F4CA02006A3001200B
:10A3A0004FD902009CCA0200010303056FD90200C5
:10A3B000060000027FB5064B4FF486510593022339
:10A3C000044804AA04931BF045F907B05DF804FBA8
:10A3D0009AD902009CCA020090B5464B93B002AFD6
:10A3E0003B623323444C7B622046BC62FEF706FE90
:10A3F000424BF8623B630A237B63414B3221BB63D0
:10A4000009232046FB631BF028F950B36C4688B043
:10A4100002AA3C4BC2E9053003234FF4C25142F873
:10A42000103F39481BF016F94FF0FF33A5467B600B
:10A430004FF4A02200233548391D0CF045F90028BF
:10A4400054D0334B3048FB6102234FF48251BB613F
:10A4500007F118021BF0FEF81BF0FAF8002001F0DB
:10A460008FFC2C4B432100932B4A23462B481AF098
:10A47000C9FA422813D92A4BFB61022307F11802BB
:10A480004FF482512048BB611BF0E4F86C4688B061
:10A4900002AA244B53616FF079039361BCE7224B0E
:10A4A0004B2100931C4A234620481AF0ABFA4A2855
:10A4B00001D91F4BE0E707F1200012F019FE70B13F
:10A4C0006C4688B002AA1B4B4FF4C251C2E905305A
:10A4D00003230D4842F8103F1BF0BCF8A5464FF48B
:10A4E000F01200231449154817F0E0FB4437BD462D
:10A4F00090BD00BFBCD80200AD300120B8D9020029
:10A50000C3D90200CDD902009CCA0200CCCA020005
:10A5100013D60200ECD90200E6D902006A3001200D
:10A52000FDD9020056DA02001CDA02001F300120B9
:10A5300035DA02006FDA0200B005012010110120A7
:10A5400040F29273002140F2BB30014A12F02CBB62
:10A55000B5DA02007FB5084B05930223049300236C
:10A560004FF48251054804AA01F0A2FF01F036FE23
:10A57000002001F005FC00BF48E202000CC9020007
:10A5800008B5034B834201D1FFF7E4FF08BD00BFCC
:10A59000CCCA0200B0B586B000AF284D284621F0E5
:10A5A000C0FA034668B9264A7A6102223A614FF43A
:10A5B0008251244807F1100201F07AFF1837BD4696
:10A5C000B0BD214B1B681C78CCB1012C2FD1AB68DE
:10A5D000214628461B6898470028EFD06C4688B073
:10A5E0006A461A4BC2E90530032342F8103F0023A4
:10A5F0004FF4C251134801F05BFFA546DEE7AB689C
:10A60000012128465B6898470028D7D06D4688B05E
:10A610006A460F4BC2E90530032342F8103F00237E
:10A620004FF4C251074801F043FFAD46C6E76D46FF
:10A6300088B06A46074BC2E90534EDE778C50200E9
:10A640005FE2020024C90200E0CA020077E20200D1
:10A6500089E202009CE20200024B834201D1FFF733
:10A6600099BF7047E0CA02002DE9F04F91B0009306
:10A6700002F004030293C2F3C203013384070546C8
:10A680000E46DDF868800392059340F0F681041DC4
:10A6900030B1072909D86FF01B0011B0BDE8F08F69
:10A6A00001F00706341DC6F108064FF000094FF00F
:10A6B000040B009B4F46013B01934FF0FF324B468A
:10A6C000DA46CDF810900DB1009921600598002868
:10A6D00000F3D78098480099814203D3974881427C
:10A6E000C0F0CF800399A4EB050E89074FEA9E00C6
:10A6F00040F1E2804FF0000CCCE07A285AD84B2889
:10A700000CD8472856D829282AD8252851D051D8DE
:10A71000202877D023384342434173E04C382E2819
:10A7200048D8DFE800F06F47474747474747474764
:10A73000474749474747474747474759474949597F
:10A7400059596F496C476F471849184747807D49E9
:10A75000474749477D00002000234FF0040B39E0B4
:10A7600001212A38C0B201FA00F010EA0E0F49D1D7
:10A7700010F0625C30D110EA010343D06046013C26
:10A780005C44B4FBFBF40BFB04F4002D60D0AAEB9B
:10A79000050CA4446645FFF47EAF00286AD1BAF1E7
:10A7A000040F45D158F8040B20604FF0040A04341C
:10A7B00028E0013A002325E0019B13F8013C6C2BB3
:10A7C00033D10020019B13F8023C6C2B0346C4D10B
:10A7D0004FF0080BDA46D2E708F1070828F007081F
:10A7E000073424F00704F8E802AB35B1069820449A
:10A7F000B0423FF650AFC4E900AB002308344FF03D
:10A80000080BDA46019911F8010F0191002800F0B8
:10A81000BC80002B7FF471AF2528F3D101230132D6
:10A820004FF0040BEDE7184696E700200346A6E735
:10A83000BAF1080F40F09B8008F1070828F00708DC
:10A84000F8E80201C4E900014FF0080A0834D9E72A
:10A8500080B9BAF1040F02D108F10408A5E7BAF1F2
:10A86000080F40F0848008F1070828F0070808F175
:10A870000808E9E705990139059158F8041B00918A
:10A8800021E7039988074AD54FF0010CA4EB050E88
:10A890004FEA9E00BEF5007F1ED3294940F27B237C
:10A8A000284A29481BF092F928481BF08FF940F2FA
:10A8B0007B2124481BF083F90F2F0FD8002D49D09E
:10A8C00007F140010DEB010C0CF8200C0CF8102CDA
:10A8D00004980130049021E00F2F0CD918494FF44F
:10A8E0002073184A18481BF071F919481BF06EF9CB
:10A8F0004FF42071DDE7CDB107F140010DEB010E02
:10A90000C0B20EF8200C0EF8102CBCF1000FDFD0F6
:10A9100060F07F000EF8200C09F101090137C5F144
:10A9200008014FF6DA7E043406916BE7BCF1000FA4
:10A9300010D00136F2E700BF50C40200903D030082
:10A94000AB0B0300AEE20200DCE20200F9E202001F
:10A950001AE30200029802360028DFD10098CDE900
:10A960000632FEF74BFBDDE906320644D6E740F23D
:10A97000C523434A434944481BF028F951464348FC
:10A980001BF024F940F2C52193E7631BB3F5806FF8
:10A990000CD33C4940F2D123394A3B481BF016F90D
:10A9A0003B481BF013F940F2D12182E71DB9A6F113
:10A9B0000804E01871E6029A9B0828602B709DF845
:10A9C0001030C2B1EB7085F80290B9F1000F05D0DC
:10A9D000002208A8C5F1010C97420ED14FF0000AE1
:10A9E000C5F101030DF1200801930DF1300B57451E
:10A9F00012D1601B51E66B70E5E710F8013B1906B8
:10AA000008D504EB0C0E764503F07F03FFF443AE4C
:10AA100004F8013B0132DFE7B9F1000F03D098F9E8
:10AA20000020002A17DB029BD3B11AF80B2004F890
:10AA3000012B0022019B981820448642FFF42BAE84
:10AA400098F80000009904F8010B2046039221F0C9
:10AA50007BFC039A14440AF1010A08F10108C6E7D5
:10AA600098F8002055F822300093029B009845F892
:10AA70002230FEF7C3FA421CDCE76FF00D000CE653
:10AA8000AEE20200AB0B0300DCE2020034E30200A2
:10AA900049E302002DE9F04F95B000AF8A46044625
:10AAA0007A62BB6158B9A8494FF46573A74AA848B0
:10AAB0001BF08CF84FF46571A4481BF080F8BB6F55
:10AAC00090F802B0C3F3C0033B6141B94578007808
:10AAD0000BEB80002044554517D8A0EB040AE3781F
:10AAE0007B61BBF1000F02D0BB6FD80716D47B6926
:10AAF00053BB7B6A1BB151462046BA6998475546FD
:10AB000028465437BD46BDE8F08F461C3046FEF758
:10AB100075FA013030440AF1010ADCE723786268F3
:10AB20003B629B00FB603B6AFA6104EB83097B6A32
:10AB3000002B40F00081C8460026554609EB0B0A61
:10AB4000C24551D1D94413E0BB6F9907D1D52378C1
:10AB500099463B629B00FB60636804EB8909FB61DB
:10AB60007B6A002B7AD15546BBF1000F4FD15E4670
:10AB7000BB6F13F0050F0CBF4FF0020B4FF0010B32
:10AB80007B6909EB430ABB6F03F002037B62D1458B
:10AB9000B6D019F8021B19F8013C54F823806D4B0C
:10ABA000984502D36C4B984538D33B69002B42D073
:10ABB000F8691AF085FD00283DD0E8468AB06A465B
:10ABC000664B5361FB69C2E906314FF4007313848D
:10ABD000634B42F8103F00234FF41251614801F0DB
:10ABE00067FC023DC546D2E718F8013B54F8230044
:10ABF000FEF704FAFB6F01303BB1D7F880309E427C
:10AC00003EBFFB6F23F816000136054498E7BB6F83
:10AC100013F004061CBF7E6AD944A9E73B6923B13F
:10AC2000F8691AF04DFD0028C7D1BB6FDA0705D4CB
:10AC3000A5EB0B05ABE77B6A002BA8D04046FEF7DF
:10AC4000DDF9FB6F43B1D7F880309E423FBFFA6F0A
:10AC5000431C22F816300136054498E7BBF1000F7B
:10AC60006FD0BB6F13F004067ED0D846002607F1E4
:10AC700040005A46494621F067FB7B69D9445B0096
:10AC80007B607B6909EB4303BB60BB6F03F002038E
:10AC90003B60BB68994569D1B96F6378B86F890724
:10ACA00048BF002106EB030258BF4FEA5801C50711
:10ACB000D2B200F1DF8010F0040F14BF4046002034
:10ACC000FB616270A070E1702046BA69F9687B6A26
:10ACD0009847051EFFF614AF3B6A41462370FB6997
:10ACE000BA6963707B6984F802B0E37007F14000D1
:10ACF0007B6A9847B0F10008C0F2E980FB68AAEBD4
:10AD00000B01C91A7B684846C91ABA697B6A984719
:10AD10000028C0F2DE804FF0000BA84408EB0005CD
:10AD200007F1300AB345C0F0A7800021BA69084690
:10AD30007B6A9847E4E65E464FF0000807F1300072
:10AD400097E75E46D84698E760E30200AEE202006D
:10AD5000DCE2020050C40200903D03007BE30200ED
:10AD600004000001E4C80200B04686E719F8021B9F
:10AD7000594B19F8015C54F82500984202D3574BFF
:10AD8000984216D33B692BB1F8691AF099FC002858
:10AD90007FF47FAF3B68002B4AD00F2E3ED950493D
:10ADA0004FF489634F4A50481AF010FF4FF48961FD
:10ADB00082E63B692BB1F8691AF082FC00287FF427
:10ADC00068AFBB6FDB070BD50F2E27D9444940F284
:10ADD0003E43444A44481AF0F9FE40F23E416BE6D5
:10ADE000BB6F58077FF555AFB8F10F0F09D93F4931
:10ADF00040F241433B4A3C481AF0E8FE40F24141F0
:10AE00005AE608F1280307F1280208F1010103EBD3
:10AE1000020808F8105C5FFA81F83AE706F12803A7
:10AE200007F12802711C9E1806F8205CCEB230E7AC
:10AE3000B8F10F0F09D92D4940F24B43294A2A484E
:10AE40001AF0C4FE40F24B4136E608F1280307F140
:10AE5000280208F1010003EB020C07F1500308F18E
:10AE6000020853FA80F00CF8101C5FFA88F800F81A
:10AE7000105C0EE7002023E71BF80A3054F82390FB
:10AE800087F82F30FB6FFBB133F81B800121BA69C3
:10AE90007B6A07F12F00984700281ADB0544B8F1B8
:10AEA000000F06D14846FEF7A9F800F101081FFA85
:10AEB00088F841464846BA697B6A9847002808DB0B
:10AEC00005440BF1010B2DE7D7F87C80DEE7454602
:10AED00016E6054614E600BF50C40200903D03008C
:10AEE0001EE40200AEE20200DCE202003DE40200E9
:10AEF000032800B508D921F0A1FA0922074B1A50FE
:10AF00004FF0FF305DF804FB2822054B02FB0033B5
:10AF1000D3E8AF3F002BEED00020F3E70C00000099
:10AF2000581E012038B504461546FFF7E1FF0028FA
:10AF30000DDB28236343074AD0184068086015B129
:10AF40000C3313442B6028235C43105938BD002078
:10AF5000FCE700BF501E012070B500254FF0FF3305
:10AF60004FF0FF32174815F05BFF174BD3E8AF2FB8
:10AF700082B10135042D03F12803F7D121F05EFAE7
:10AF800017224FF0FF35114B1A500E4816F018F8E3
:10AF9000284670BD28246C43D3E8EF0F0130C3E886
:10AFA000E10F0029F8D10A4E331932515A6004F1E9
:10AFB0000C00304420F001FE04F12000304420F069
:10AFC000E3FEE2E7480B0120581E01200C000000C0
:10AFD000501E012010B40446104628225443084B4A
:10AFE0001A191951506040B1C26832B10C3423446F
:10AFF00040F2051210BC1AF088BB10BC704700BFAD
:10B00000501E01202823434330B50D4908330B441B
:10B01000D3E8AF2F92B1541ED3E8EF5F954204D12D
:10B02000C3E8EC4FBCF1000FF6D1F1D1012A05D1F4
:10B030002823584300230A180B50536030BD00BF2B
:10B04000501E0120014B1860704700BF10080120FE
:10B0500080B505460E461746984617F089FF034609
:10B0600021F0ECF90446DFF81890424649F8003028
:10B0700039463046A84754F8090003F0F1FD00BFF7
:10B0800008000000F8B50F4600293BD006680122F1
:10B0900030461AF092FB0146044630461AF055FB42
:10B0A000C3070DD4AF23184A184919481AF08EFD6A
:10B0B000394618481AF08AFDAF2113481AF07FFD6F
:10B0C000214630461AF057FB251829460022304603
:10B0D0001AF03BFB2D1AAC420BD0B7230A4A0E499B
:10B0E0000B481AF073FD39460C481AF06FFDB72172
:10B0F000E3E7214630461AF044FB2146BDE8F8401C
:10B100001AF080BCF8BD00BF6EE402008FE40200BC
:10B11000DCE20200A0E40200D8E40200FEE4020047
:10B120002DE9F8430F4606681446B2684B1EB2F587
:10B13000004F34BF042108213B4010D0C7F1000963
:10B1400009EA0709494503F1FF3028BF494618427B
:10B150000CD11F46DCB900252846BDE8F8838F4294
:10B1600013D82146BDE8F8431AF08EBC2E494FF49F
:10B17000A2732E4A2E481AF029FD2E481AF026FDF9
:10B180004FF4A27129481AF01AFD9946E2E7B2EB92
:10B19000D40FE0D9E319591A10461AF018FB0146EA
:10B1A00030461AF06EFB80460028D4D0B36809EB15
:10B1B000C005B3F5004F34BF042308231D443544B4
:10B1C0007B1E1D44B5FBF7F57D43A5EB090529461C
:10B1D00030461AF0F2FA2C44073424F00704A41B7A
:10B1E000804507464FEAE40408D20246414630460D
:10B1F0001AF081FB414630461AF0C2FB3946304610
:10B200001AF0B9FA3844844208D239463046224608
:10B210001AF071FB214630461AF0B2FB0122394682
:10B2200030461AF0AEFA97E73AE502006EE4020003
:10B23000DCE2020055E50200B2F5802F2DE9F04175
:10B2400010D2042A28D843494FF4F973424A43489C
:10B250001AF0BCFC42481AF0B9FC4FF4F9713E48B0
:10B260001AF0ADFC0823D21ACC1D114424F00704B7
:10B2700021F00701091B17294FEAD1060ED83949D9
:10B2800040F2FB13344A35481AF0A0FC34481AF057
:10B290009DFC40F2FB11E2E70423E4E70027046091
:10B2A00031463046A660E7601AF09AFA0121421D45
:10B2B000804630461AF08BFA9200D51DED082844DE
:10B2C000B0423AD8B8F1FF3F3946A2F1100204F17A
:10B2D0001000B8BF3A4621F05EF82A4639462046AB
:10B2E0001AF067FA3B463A46394620461AF038FAD1
:10B2F000A6EB05082046394601221AF042FA4246DA
:10B3000029461AF056FA2B463A46294620461AF0A4
:10B3100027FA314620461AF04CFA43463A4631465F
:10B3200020461AF01DFA3146204601221AF029FA69
:10B330002946BDE8F0411AF023BB0B494FF40373D3
:10B34000054A06481AF042FC05481AF03FFC4FF443
:10B35000037184E772E502006EE40200DCE20200A1
:10B3600093E50200ACE50200D5E502002DE9F84FB7
:10B370000446A38B08461907154612D4022803F089
:10B38000070164D120461AF0B1FB88B101380428C6
:10B3900000F23481DFE810F05B0032018100D1005F
:10B3A000010101280CBF43F0100143F02001A183EB
:10B3B0001434204615F086FB002840F09B81984904
:10B3C000F023984A98481AF001FC2146B0E003F0B7
:10B3D0000702501F01281ED80020062A2768C4E94A
:10B3E000000014D13A4603E0E08B0130E08312689C
:10B3F000002AF9D123F0070343F002022046A2837A
:10B400001AF074FB90B342F02002A2832EE023F0E6
:10B4100007039AB2F2E7042A33D123F007039AB262
:10B420002046A2831AF062FB10B142F02002A283F0
:10B43000A38B03F00709894540F0EA80A18BCA0677
:10B4400040F14F8121F01003A38301F00701D4F8EC
:10B450001880A38BB8F1000FB9DA0022276823F017
:10B460000703C4E9002243F00103A383A38B03F085
:10B470000709894540F0CD80002FDFD00026B24675
:10B4800044E06A4940F21B13694A67481AF09EFB80
:10B4900040F21B1166481AF092FB49B165494FF41E
:10B4A000AB73634A60481AF091FB4FF4AB71F1E75C
:10B4B00023684BB9604940F257135D4A5A481AF065
:10B4C00085FB40F25711E5E723691E684EB95B49D9
:10B4D0004FF4AD73564A54481AF078FB4FF4AD71EF
:10B4E000D8E70F4688464FF00609A38B23F00703E1
:10B4F00043F006039BB2A383A268002A40F08B802E
:10B50000002F40F08B80002E98D0BA4643F00803FD
:10B5100004F1140B5846A38315F0D4FA002840F028
:10B5200097803F49F0233F4A3F481AF04FFB594666
:10B5300043481AF04BFBF021AEE0022909D0414903
:10B5400040F25D133A4A38481AF040FB40F25D1170
:10B55000A0E7E78B4FB13C494FF4AF73344A324810
:10B560001AF034FB4FF4AF7194E723695E684EB96B
:10B57000324940F261132E4A2B481AF027FB40F261
:10B58000611187E7A38BB84623F0070343F0040358
:10B590009BB24FF00409A383AEE7012909D02B49E0
:10B5A0004FF4B273224A20481AF010FB4FF4B271E4
:10B5B00070E723684BB9204940F265131C4A1A48CA
:10B5C0001AF004FB40F2651164E723699E684EB9E6
:10B5D0001A494FF4B473164A13481AF0F7FA4FF4A5
:10B5E000B47157E70027A38BB84623F0070343F055
:10B5F00005039BB24FF00509A3837DE70B4940F299
:10B600006B130B4A08481AF0E1FA40F26B1141E75C
:10B610000027002670E74FF0010A77E7924675E7AA
:10B62000D0E60200A3E60200DCE20200AB0B03005E
:10B6300000E6020022E602002EE6020051E60200C9
:10B64000E7E6020068E602007EE602008DE6020000
:10B6500085F31188BFF36F8FBAF1000F1ED1002F51
:10B660002FD116B120462649B0474FF02003EFF303
:10B67000118583F31288BFF36F8F584615F014FAC3
:10B6800038BB72231F4A204920481AF09FFA5946B6
:10B690001F481AF09BFA72211A48FCE6A16800299B
:10B6A000DDD00D680029DAD043464A462046D1F85D
:10B6B00004A0D0471DB12B6829461D46F2E72B4652
:10B6C000FAE7394643464A4620463F681AF03AFAB6
:10B6D000C5E7584615F004FAA38B23F00803A383AB
:10B6E000ACE68B067FF564AE21F02003A38301F066
:10B6F000070147E685F31188BFF36F8FBDE8F88F28
:10B7000015B70000A3E60200FCE60200DCE202003E
:10B7100011E70200F8B504460D4600F114064FF09B
:10B720002003EFF3118783F31288BFF36F8F304646
:10B7300015F0BAF968B972230B4A0C490C481AF093
:10B7400045FA31460B481AF041FA722106481AF0C0
:10B7500036FA304615F0C4F9A5613A462046BDE8F0
:10B76000F8400121FFF702BEA3E60200FCE602005A
:10B77000DCE2020011E702002DE9F04704460F4623
:10B780001AF0D0F9051E67DB04F114094FF020030D
:10B79000EFF3118A83F31288BFF36F8F484615F0D9
:10B7A00083F9804660B97223374A384938481AF01D
:10B7B0000DFA494637481AF009FA7221324840E03A
:10B7C000484615F08DF94FF6FF72E38BA68B934236
:10B7D00006F0070643D0022E13D135460133E3832A
:10B7E000484615F06FF900283FD1F023264A2A4930
:10B7F00027481AF0EBF9494628481AF0E7F9F021F2
:10B80000DCE7062E13D8DFE806F0092D1212090432
:10B8100009006FF085054FF00008E1E700233B6069
:10B82000636883B9C4E9007786B13546F3E71C49FC
:10B8300017484FF4E4731B4A1AF0C8F94FF4E47147
:10B8400018481AF0BCF91F606760EDE75246022104
:10B850002046FFF78BFD35462846BDE8F0876FF0A0
:10B860000A05D8E76FF00405D5E78AF31188BFF31E
:10B870006F8FB8F1000FEFD00023324639462046D3
:10B880001AF060F9E8E700BFA3E60200FCE6020058
:10B89000DCE2020011E70200D0E60200E7E6020067
:10B8A0008DE6020000E6020008B54268034602F099
:10B8B0000302022A81600AD0032A4FF0000103D05C
:10B8C000012A0AD1596006E01868596008BD186855
:10B8D00000225A6058B90020F8E706490648452377
:10B8E000064A1AF073F9452104481AF068F918F06D
:10B8F000C1FBF0E7AB0B0300DCE2020027E702002C
:10B9000038B50D4604462022002120F044FD0022D7
:10B91000EB68E361AB68A3612B6823626B68A2628A
:10B9200063622A6923B1591E194208BF42F001021D
:10B9300022610122002104F12C0020F07BF948B1A2
:10B94000054906482E23064A1AF040F92E210448DC
:10B950001AF035F938BD00BF70E70200DCE20200E2
:10B960004AE702002DE9F04F002789B0CDE9012315
:10B97000436A04468B428846BA460597079753D3D5
:10B9800000F114064FF02003EFF3118B83F31288BC
:10B99000BFF36F8F3046D94615F086F858B9722339
:10B9A0004A4A4B494B481AF011F931464A481AF0B5
:10B9B0000DF972215EE0304615F092F8079A2AB12F
:10B9C000394620461AF0E3F90023079306A92046DA
:10B9D0001AF009F90699054641452ED32268236AD3
:10B9E000204613F8221003EB820A21F0030103F82A
:10B9F0002210216842461AF01AF9E3682060984242
:10BA000016D00025304615F05DF840B389F3118853
:10BA1000BFF36F8F059929B1A2690AB120469047FB
:10BA200000230593002DADD1504609B0BDE8F08F3D
:10BA3000236943F008032361E3E718B120461AF0B5
:10BA400010F9DFE7DDE90132134336D0039120F02E
:10BA50009FF8039988BB304615F034F868B9F02395
:10BA60001A4A1E491B481AF0B1F831461C481AF010
:10BA7000ADF8F02115481AF0A2F88BF31188BFF346
:10BA80006F8F04F12C00DDE9012315F0ADFC0546B4
:10BA90004FF02003EFF3118983F31288BFF36F8F08
:10BAA000304615F001F800283FF479AFB5FA85F576
:10BAB000304615F015F86D09A4E7204607AB05AA36
:10BAC00027681AF0EDF805469CE700BFA3E60200E0
:10BAD000FCE60200DCE2020011E70200D0E6020010
:10BAE000E7E602002DE9F0410446C36908460E4628
:10BAF000984704F1140507464FF02003EFF311882F
:10BB000083F31288BFF36F8F284614F0CDFF68B916
:10BB10007223194A19491A481AF058F8294619483F
:10BB20001AF054F8722114481AF049F8284614F013
:10BB3000D7FF33783A4643F00103337061682046FB
:10BB40001AF075F8606020461AF03CF9284614F0A7
:10BB5000B9FF58B9F023084A0B4909481AF036F8DA
:10BB600029460A481AF032F8F021DCE788F31188F8
:10BB7000BFF36F8FBDE8F081A3E60200FCE6020090
:10BB8000DCE2020011E70200D0E60200E7E6020074
:10BB90002DE9F843044600F114074FF02003EFF3BA
:10BBA000118883F31288BFF36F8F384614F07CFF3F
:10BBB000054668B97223344A344935481AF006F804
:10BBC000394634481AF002F872212F4819F0F7FF6D
:10BBD000384614F085FF2369A26813F0080F02D1DC
:10BBE00063689A4200D9636A9B1A002B3DD0216A90
:10BBF00011F8223001EB820913F0030038D002283B
:10BC000003D151F82260B60805D1D8071DD44846A3
:10BC1000E36998470646A168324620461AF007F8BD
:10BC20003146A06020461AF010F8384614F04AFF5A
:10BC300000BBF023144A1849154819F0C7FF3946CC
:10BC4000164819F0C3FFF021BFE743F0020301F8E3
:10BC50002230E3694846A5689847294602462046AF
:10BC600019F0E5FF0025A060DFE71D46A946DCE7E7
:10BC70000546FBE788F31188BFF36F8F002D8CD149
:10BC80004846BDE8F88300BFA3E60200FCE60200D8
:10BC9000DCE2020011E70200D0E60200E7E6020063
:10BCA0002DE9F0410446C36908460D46984704F162
:10BCB000140607464FF02003EFF3118883F3128830
:10BCC000BFF36F8F304614F0EFFE68B97223264A37
:10BCD0002649274819F07AFF3146264819F076FFA1
:10BCE0007221214819F06BFF304614F0F9FE2B78D1
:10BCF0006FF300032B7023699B0705D5E268236A65
:10BD000003EB82039D4220D12B786FF341032B700C
:10BD1000D4E90231994204D13A46204619F087FF0E
:10BD2000A0603946204619F090FF304614F0CAFE54
:10BD300080B9F0230C4A10490D4819F047FF3146ED
:10BD40000E4819F043FFF021CBE72B6867F39F0300
:10BD50002B60EAE788F31188BFF36F8F04F12C00A2
:10BD6000BDE8F04115F0FCBAA3E60200FCE60200D3
:10BD7000DCE2020011E70200D0E60200E7E6020082
:10BD8000044608B54FF02002EFF3118382F31288C6
:10BD9000BFF36F8F0CF01CF9204602F017FF034829
:10BDA00019F0C6FC02F082F9FCE700BF79E7020057
:10BDB0000122024B0020C3F8402570470090034049
:10BDC00020B1034B800143F001031847704700BFC7
:10BDD000E0CB02001EF018BD30B5002289B00F493B
:10BDE0000F4820F020F8002200230024CDE906238C
:10BDF0000E230C4DCDE903344FF400622846CDE903
:10BE00000144094B0949009414F084FD084928466F
:10BE10001FF0C4FE204609B030BD00BF79BF00004E
:10BE200048160120B811012051C20000607E012097
:10BE3000A6E702002DE9F047044607464FF0010946
:10BE4000DFF8508014B93846BDE8F08794FAA4F5BD
:10BE5000B5FA85F509FA05F32E0108EB05156FEA29
:10BE6000030A24EA03042B7B002BEBD058F806309E
:10BE70001B694BB94644736804222846196807EACF
:10BE80000A0700F0EFFADDE7284698470028D9D1E5
:10BE9000F0E700BFBCCA02002DE9F047DFF8B89018
:10BEA0002E4C8046A9EB04039F2B0F460BD92C493F
:10BEB00040F219132B4A2C4819F088FE40F2191150
:10BEC000284819F07CFE294819F0ABFF064660B3FC
:10BED00000252846BDE8F087237B73B12368DB6823
:10BEE0000BB12046984723681B69B3B963680422E5
:10BEF0002046196800F0B6FA013610344C4518D9BE
:10BF00001B494FF49373174A174819F05FFE1948FD
:10BF100019F05CFE4FF49371D2E720469847002851
:10BF2000E4D00AFA06F31D43E6E705464FF0010A9E
:10BF3000E4E7D1D3B8F1000FCBD0002DC8D028460C
:10BF4000FFF778FF0546002FF7D000214FF4A470CB
:10BF500016F0DAFFF1E700BFCCCA0200BCCA02004B
:10BF6000DBE70200AEE70200DCE20200041F012072
:10BF7000FFE7020020E80200014815F0F1B900BF18
:10BF8000F00C0120014B53F8200070471CCC02003C
:10BF900008B5034608462BB1044A136000F0A8FD1B
:10BFA000002008BD6FF01500FBE700BF140801205A
:10BFB00010B5044C237813B9034815F0D1F90123C7
:10BFC000237010BDDF300120F00C012010B50446B5
:10BFD000064819F026FF3CB1054BD3E8EF1F0139A5
:10BFE000C3E8E21F002AF8D110BD00BFFC1E0120EB
:10BFF000001F012000200146034BD3E8EF0FC3E8E8
:10C00000E21F002AF9D17047FC1E012070B5FFF72E
:10C01000F1FF05460F4C104EB44219D90F4940F2BA
:10C02000D1130F4A0F4819F0D1FD0F4819F0CEFD7A
:10C0300040F2D1110A4819F0C2FD63685B792BB157
:10C0400023685B6813B12946204698471034E3E71C
:10C05000F3D370BDBCCA0200CCCA0200FFE70200E5
:10C06000AEE70200DCE2020020E8020010B5044C5A
:10C0700004492046FFF744FC034B1C6010BD00BF81
:10C08000200A012008CC0200F41E012008B500237C
:10C09000074A4FF400411370064A07481360074AE5
:10C0A0001360FFF775FFBDE80840FFF7DFBF00BF73
:10C0B000E0300120FC1E01201F5E0200001F012055
:10C0C0000146002200230148FFF74CBC200A012052
:10C0D0000148FFF75DBD00BF200A0120024B014669
:10C0E0001868FFF7DDBD00BFF41E0120014819F0FC
:10C0F00076BE00BF200A012070B52E4B18780028AC
:10C1000057D0FFF7E5FF054640B32B4BD3E8EF1FB1
:10C110000139C3E8E21F002AF8D1284C284EB44266
:10C1200018D9284940F2C513274A284819F04EFD6E
:10C13000274819F04BFD40F2C511234819F03FFD87
:10C1400063685B7923B12368294620461B689847BA
:10C150001034E4E7F4D32846FFF7C0FF1D4B1E4C14
:10C160001B68002B19DD1FF017FE4FF47A72A0FB3D
:10C17000020302FB0131C30B43EA4143D4E900202F
:10C180009B1A40F2E9324FEAD13161EB0001934250
:10C1900071F1000101D3FFF739FFD4E9003213F543
:10C1A0007A7342F10002C4E90032BDE87040FFF743
:10C1B0009DBF70BDDF300120001F0120BCCA0200FE
:10C1C000CCCA0200FFE70200AEE70200DCE2020098
:10C1D00020E80200FC1E01204016012070B5154D1C
:10C1E000297829BB0120FFF757FE134C134EB442A8
:10C1F00017D913494FF4C473124A134819F0E6FCD7
:10C20000124819F0E3FC4FF4C4710E4819F0D7FC42
:10C2100063685B791BB1236820469B68984710349C
:10C22000E5E7F5D3FFF768FF0028FBD101232B706A
:10C2300070BD00BFE0300120BCCA0200CCCA0200C1
:10C24000FFE70200AEE70200DCE2020020E80200A5
:10C250002DE9F047304B314FFB1A1B090BD1304908
:10C260004FF457732F4A304819F0B0FC4FF4577110
:10C270002C4819F0A4FC00210846FFF70DFE0446E7
:10C2800050B340F267684FF0000920F0D7F8274B11
:10C29000274A1B58136033B1264B1B68092B02DD5C
:10C2A000254815F05DF80025DFF88CA044B1204644
:10C2B000FFF7C0FD044618B94FF0FF384FF0FF39C3
:10C2C000FFF71AFF064628B95DB942464B4650466D
:10C2D00015F08AF83546E9E74FF0FF384FF0FF399F
:10C2E000D3E70D4D08E0F0D22B689B691BB100220B
:10C2F0002846114698471035BD42F4D90F494FF4EE
:10C300005473084A084819F061FC0D4819F05EFCA6
:10C310004FF45471ACE700BFBCCA0200CCCA0200A3
:10C320003FE80200AEE70200DCE202000800000085
:10C33000F81E0120001F0120F00C0120FFE7020081
:10C3400020E8020013B52B4819F06BFD2A4B1B782F
:10C35000002B34D04FF02003EFF3118483F31288C5
:10C36000BFF36F8F254814F09FFB68B97223244AEE
:10C370002449254819F02AFC2049244819F026FCB4
:10C3800072211F4819F01BFC1C4814F0A9FBFFF791
:10C39000B3FE1A4814F096FB58B9F023184A1C490A
:10C3A000194819F013FC15491A4819F00FFCF0212F
:10C3B000E7E784F31188BFF36F8F02B010BD164B0F
:10C3C0001B68002BF9D050B9002200231348CDE997
:10C3D00000234FF40042002317F02CFBEDE709285F
:10C3E000EBD10E481FF02BFD0D4802B0BDE8104008
:10C3F00014F0B6BF001F0120E0300120F01E012024
:10C40000A3E60200FCE60200DCE2020011E7020003
:10C41000D0E60200E7E60200F81E012048160120DF
:10C42000F00C012010B5064B04461B6898472146C6
:10C43000A0600448FFF756FBBDE81040FFF782BF3D
:10C4400014080120200A0120044A054B9B1AB1EB75
:10C45000D30F34BF52F8310000207047BCC802002F
:10C46000BCCA02000E4B10B5C31A1B110133DBB25C
:10C4700048B90C490C48DF230C4A19F0A7FBDF210F
:10C480000A4819F09CFB4468237143689A710122A1
:10C490004368196043685A71BDE81040FFF788BDD2
:10C4A000BCCA0200DFE80200DCE20200A7E80200EA
:10C4B0002DE9F04F8FB0C1F34A2804AF0D469146E5
:10C4C000B8607B600C0DB8F1000F66D000264FF00D
:10C4D000040B4FF00A0A07F11403C7F80C80C7E9F0
:10C4E00007667E620193CDF808B0CDF800A007F191
:10C4F0001C0332464846F968FEF7CCFAB0F5006FE7
:10C5000003461CD36C468AB0D9F8041004AB2B4800
:10C510001A46C3E9050140F2FF71D9614FF4007179
:10C520001984274B42F8103F4FF4125133462548E7
:10C53000FFF7BEFFA5462C37BD46BDE8F08FC0F320
:10C540000A0804F11700184420F0070080083B6037
:10C55000FFF7B6FD68F35325044630B33B6800F19E
:10C560001001C7E9083607F11403F961CDE900A30A
:10C57000CDF808B04846144AF96807F11C03FEF7E5
:10C5800089FA002811DA114911485923114A19F082
:10C590001DFB59210F4819F012FB04F1170020F080
:10C5A00007008008FFF78CFD044668F353252A46F0
:10C5B00020467B68B96819F066FCBCE7FFE802001A
:10C5C0000400000134C902005B5E02006BE9020056
:10C5D000DCE202003EE902002DE9F04F87B004469C
:10C5E000DDE9105ADDE912690F4693469846AEB16F
:10C5F0001021334652460020CDF80090CDF814901B
:10C60000FEF732F8011E0ADA1F4978231F4A204834
:10C6100019F0DCFA78211D4819F0D1FA314605F1FC
:10C62000170008441B4B04F007040BF0070BE40051
:10C6300020F0070003EA412344EA8B1480081C43DE
:10C640000391FFF73DFD44EA0554054690B18EB1D4
:10C65000334652460399CDF800901030FEF704F8A7
:10C66000002807DA08499223084A094819F0AEFA67
:10C670009221D0E7434622463946284607B0BDE816
:10C68000F04F19F000BC00BF6AE902003EE9020069
:10C69000DCE2020000FE0F000EB403B503AB53F85A
:10C6A000042B01460448019302F022FD02B05DF81C
:10C6B00004EB03B0704700BFD9C60000CA0605D41A
:10C6C0008B064CBF02490349FFF7E6BF704700BF26
:10C6D0008EEB02007023030038B54B6805461A68DC
:10C6E000CB680C469A4202D1084619F0F2FB636807
:10C6F000D3E8EF2F511CC3E8E01F0028F8D1A3684E
:10C700009D5463681A68E3689A4209D90549064846
:10C710007A23064A19F05AFA7A21044819F04FFA96
:10C72000002038BDA3E90200DCE2020074E9020047
:10C730002DE9F04F89B09B46DDE914839DF84C70DC
:10C740000593169B04460D46179E06920493002FF0
:10C7500000F09480042F0BD99A4940F2BF139A4AF3
:10C760009A4819F033FA40F2BF11974819F027FAA6
:10C7700006F00803079319F06EFB06F0020A024662
:10C7800000284AD020469249FFF786FF8146BAF139
:10C79000000F08D016F0440F41D12A4620468D499B
:10C7A000FFF77AFF814406F0010353B18A4B20461C
:10C7B00053F82720894B8A49002A08BF1A46FFF7F9
:10C7C0006BFF06F00803002B55D0864B204653F82C
:10C7D00027208549FFF760FF0546069B2BB11A46C7
:10C7E00020468249FFF758FF0544BBF1000F05D0F2
:10C7F0005A4620467E49FFF74FFF05444D44B8F1A5
:10C80000000F4CD1049B002B61D1F30700F1D380C2
:10C8100031462046FFF752FFC7E08146B7E7754B28
:10C8200018680028BED0744B4FF47A7A1B684FF416
:10C830006161B5FBF3F5B5FBF0F300FB13550AFBA3
:10C8400005F5B3FBF1F2B5FBF0FE4FF03C0C01FB3C
:10C85000123100FB1E55B1FBFCF30AFB05F5B5FBDD
:10C86000F0F50CFB131120460091CDE901E5634979
:10C87000FFF712FF96E706F00805AEE7BBF1010FE0
:10C8800008D1B8F1000F1CD1049B002B00F08D8063
:10C8900000251CE0B8F1000FF6D0594812E05948C5
:10C8A00043462246584918F0DAFE00280CDA574968
:10C8B00040F21923444A454819F088F940F21921F9
:10C8C00053E750483D46EBE7049B002B6AD0DFF866
:10C8D0004091DFF840A1DDF810803146B8F1100F2B
:10C8E000204628BF4FF010084FF0000BFFF7E6FE80
:10C8F0005D4543DC059B514620461A78FFF7CCFE88
:10C900004FF0010B1BF0070F03D149462046FFF7FC
:10C91000C3FED84539D9059B5146204613F80B2054
:10C92000FFF7BAFE0BF1010BBBF1100FEAD14FF08C
:10C93000000B20463849FFF7AFFE5A46059B2046BC
:10C940009A5C364B995C11F0970F08BF2E22344940
:10C95000FFF7A2FE0BF1010BBBF1100F1AD01BF079
:10C96000070F03D149462046FFF796FED8455A46A1
:10C97000E4D849462046FFF78FFEEBE749462046BC
:10C98000FFF78AFE0BF1010BB2E720462549FFF7BE
:10C9900083FEC7E7059B43440593049BB3EB080361
:10C9A000049398D1002F7FF430AF204609B0BDE842
:10C9B000F04F19F08EBA2046084A0949FFF76CFE7D
:10C9C00026E700BFD8E9020074E90200DCE20200B9
:10C9D000E4E90200E8E902002CCC0200D3E90200FD
:10C9E0003616030040CC02000DEA020013EA0200F2
:10C9F00017EA02000C1F0120081F0120F1E90200C4
:10CA0000ED5E0200D9C60000F1F000001CEA020051
:10CA10002DEA020025EA02002FEA0200433C03004F
:10CA2000791703002BEA02002DE9F0410F884B68CB
:10CA300005460C4690468E6886B0C7F382175BB1F8
:10CA4000144A9B1A43F3CF01002920DB2078C0F35E
:10CA5000C200FFF7F9FC0346214651F8102B60880D
:10CA6000C2F34A22002A01EB020408BF002100227F
:10CA7000C0F30B10CDE90408CDE902142846314675
:10CA800001970092FFF754FE06B0BDE8F081002345
:10CA9000E2E700BFBCC8020042F20F7373B58B42DD
:10CAA00028BF0B4605680446052168460D4A17F065
:10CAB000A9FF0646636828460B225B680A4919F0FD
:10CAC000FBF963683246694628465B6819F0F4F959
:10CAD00063681B2228465B68044919F0EDF902B02F
:10CAE00070BD00BFCB2503004DEA020031EA020011
:10CAF00000210123064A904206D8064A01B90123C3
:10CB00001360054B18607047012140085B00F2E795
:10CB100040420F00081F01200C1F0120014B002084
:10CB200019607047241F01200122024B02481A702D
:10CB300019F0CFB9E230012070CC02000148FFF7B4
:10CB4000ABBF00BF70CC020010B5064B0C46186896
:10CB5000FFF718FA2146BDE8104003460F220248AD
:10CB6000184700BF241F012070CC0200F8B50D4605
:10CB70000446064F4618B44201D12846F8BD14F8C1
:10CB8000011BBB680148DB699847F4E764C50200F4
:10CB900008B507481EF0C5FF48B9064906487F2377
:10CBA000064A19F013F87F21044819F008F808BD67
:10CBB00064C50200B7EA0200DCE2020079EA020082
:10CBC00008B570B9094940F20A23094A094818F022
:10CBD000FDFF094818F0FAFF40F20A21044818F056
:10CBE000EEFFB0F8A000C0F3811008BD85EB020095
:10CBF00051EB0200DCE202008DEB020008B570B9D7
:10CC000009494FF4DD73094A094818F0DFFF094864
:10CC100018F0DCFF4FF4DD71044818F0D0FFB0F8D5
:10CC2000A000C0F3410008BD85EB020051EB0200FB
:10CC3000DCE202008DEB0200084C08B5084940F226
:10CC4000DF132246074818F0C1FF074818F0BEFF5F
:10CC500040F2DF11204618F0B2FF00BF51EB020096
:10CC600085EB0200DCE202008DEB0200F7B507461F
:10CC70000E461446FEF770F9051E18DB3CB97B1E04
:10CC8000012B04D8022E17D0012E08BF0624F1B2C2
:10CC900001ABA2B2B8B204F0D5FE061E0EDA2846E9
:10CCA000FEF7B0F91FF0CAFB0F4B76421E504FF053
:10CCB000FF35284603B0F0BD1124E8E700230198B2
:10CCC0004360036774301EF08BFF019890301FF0B3
:10CCD0005BF8062C02D101981AF0EDF92846034AB8
:10CCE0000199FEF777F9E4E70C00000080CC020020
:10CCF00008B570B90A4940F285230A4A0A4818F073
:10CD000065FF0A4818F062FF40F28521054818F0D7
:10CD100056FF90F9A200BDE8084003F047B900BFF4
:10CD200085EB020051EB0200DCE202008DEB020019
:10CD300037B5069D0446E3B90093002200230E494F
:10CD400005F016FC04F174001EF04AFF04F1900097
:10CD50001FF01AF8214605F174001EF04EFF204620
:10CD60001AF0A9F905F1900003B0BDE8304016F0C3
:10CD70003FBA03B030BD00BF555F02002DE9F0435C
:10CD800089B0DDE910890C4659EA08010646454696
:10CD9000129F13D014F1690F02D014F10B0F0DD1B3
:10CDA00068461FF01FF8DDE9002313430ED114F18C
:10CDB000690F0CBF6FF00B046FF068041FF03EFBAF
:10CDC000354B64421C504FF0FF305AE0B9F1FF3F41
:10CDD00008BFB8F1FF3F0BD04FF47A73A5FB0332C5
:10CDE000DB0B43EA42433A689A4294BF3A603B60A5
:10CDF000D6F8980008B119F0ABF814F1690F0FD10B
:10CE00004FF4004540F2E73000213C684FF47A725D
:10CE10000023E4FB0501FBF777FF16F075F826E029
:10CE20000B3424D13046FFF7CBFE01280446E7D16E
:10CE30003046FFF75DFF30461CF044F80022034601
:10CE4000022103A816F0F8FF4FF4004C40F2E7303F
:10CE500000213D684FF47A720023E5FB0C01FBF7DB
:10CE600053FF02460B46214603A817F027F83B68FC
:10CE70005B00642B28BF64233B60D6F8980018B988
:10CE8000002009B0BDE8F0834FF0FF324FF0FF33D0
:10CE900019F05CF8F4E700BF0C000000F8B540F2B0
:10CEA00003139942044600F08B80B1F5827F0ED2C5
:10CEB000042923D0B1F5817F2BD0032919D01FF08D
:10CEC000BDFA5F226A4B1A504FF0FF3015E045F271
:10CED0001B43994200F0BE8045F22143994200F085
:10CEE000B78040F205139942E9D11368C0F8983031
:10CEF0000DE0006FC0F340008003F8BD1268036FBF
:10CF0000550423F0020301D543F0020323670020F8
:10CF1000F3E7D2E900158B889768D8071BD52B68F3
:10CF20009F4202D16FF00B00E7E7042004F1740286
:10CF30001A612B685A7B60F305025A732B689A7B3F
:10CF40006FF345129A732B68DA686FF39432DA60E4
:10CF50002B6814332B608B885A0729D52046FFF79E
:10CF60002FFE012802D06FF07700C6E72046FFF7BA
:10CF7000BFFE2E68B742D5D02046FFF73FFE0128FE
:10CF800020461AD11BF0A1FF022130612B685A7B89
:10CF900061F305025A732B689A7B6FF345129A73FB
:10CFA0002B68DA686FF39432DA602B6814332B60E5
:10CFB000236F13F0050FAAD0D5E71BF083FFE3E73B
:10CFC000D2E90056AB88DB070ED53368DB6813F473
:10CFD000FE1F02D1036FDF0703D5EB8843F0010387
:10CFE000EB80336814333360AB8858071BD5204679
:10CFF000FFF7E6FD012826D12046FFF779FE3368CA
:10D00000DB6813F4FE1F0BD0236FD90708D420462A
:10D01000FFF7F4FD022802BFEB8843F00403EB8026
:10D02000336814333360236F5A0742BFEB8843F0F1
:10D030000803EB80236FDB077FF569AFEB8843F0D4
:10D040001003EB8063E7EB8843F00403EB80EAE72F
:10D05000036F59E70023146819461A4618F0D8FFE1
:10D060006FF00043984294BF206023604FE700BFF9
:10D070000C0000002DE9F04105460E4617461D4CF8
:10D08000DFF8748044452BD91C49E1231C4A1D4814
:10D0900018F09CFD1C4818F099FDE1210FE0236871
:10D0A000AB4200D0D3B9A36863B91849E723144A47
:10D0B000144818F08BFD164818F088FDE721104839
:10D0C00018F07DFD3A4631462846984730B13A4639
:10D0D00031462846E368BDE8F04118471034D1E7EF
:10D0E000DDD31FF0ABF96A220A4B1A504FF0FF3024
:10D0F000BDE8F0819CC80200BCC80200DEEB020063
:10D1000090EB0200DCE2020020E80200C4EB020027
:10D110008DEB02000C00000013B50446FFF76EFD16
:10D12000002103284FF000024FF000032046009139
:10D1300018D105F0CBF904236360236F204643F038
:10D140000403236718F046FF204604F039FD031E50
:10D150000BDA1FF073F9064A5B4213504FF0FF30B1
:10D1600002B010BD05F004FAE5E70020F8E700BFC3
:10D170000C00000037B5694601AA0546FDF7D2FE4E
:10D18000044648B91FF05AF909224FF0FF340C4BFE
:10D190001A50204603B030BD4FF0FF3201984FF0D7
:10D1A000FF3318F0D3FE009B20469B689847044647
:10D1B000019818F0CDFE2846FDF724FFE9E700BFEF
:10D1C0000C00000037B505460C4619BBFFF716FDED
:10D1D00003284FF000024FF0000321462846009438
:10D1E0000DD105F073F9031E0CDA1FF027F90E4A72
:10D1F0005B4213504FF0FF34204603B030BD05F0C2
:10D20000B7F9F0E72B6F284643F001032B6718F0BE
:10D21000E1FEF1E74C1E1FF011F9012C94BF8622AC
:10D220001622014B1A50E5E70C00000013B5044626
:10D2300004F004FD031E07DA1FF000F90C4A5B42FC
:10D2400013504FF0FF3005E02046FFF7B9FC0228ED
:10D2500002D0002002B010BD636800220093204677
:10D260000023044905F084F9031EF2DAE4E700BF65
:10D270000C000000555F02002DE9F04385B0044624
:10D2800088469146FFF7BAFC02283FD00128256F57
:10D2900013D16B0707D56368002B37DD1FF0CEF87D
:10D2A000254A135004E01FF0C9F87822224B1A5087
:10D2B0004FF0FF3005B0BDE8F08315F002052046C1
:10D2C00019BF002600274FF4C036002718BF1B4D9A
:10D2D000FFF776FC012863681AD10093002200232F
:10D2E0002046174905F044F9031E03DA1FF0A6F89B
:10D2F0005B42D5E763684A46029341462B46204687
:10D30000CDE9006704F0AEFF031EEFDB0020D1E79C
:10D3100002934A462B4641462046CDE9006704F079
:10D32000A1FF031EE2DB6368002200932046002376
:10D33000034905F01DF9E7E70C0000003B5F020020
:10D34000555F020073B50D461646694601AAFDF702
:10D35000E9FD044660B1009B9B695BB95F231FF048
:10D360006DF84FF0FF340C4A1350204602B070BDE8
:10D370000923F4E701984FF0FF324FF0FF3318F024
:10D38000E5FD009B3246294620469B6998470446A6
:10D39000019818F0DDFDE8E70C00000013B5044625
:10D3A00004F024FD031E08DA1FF048F8084A5B4227
:10D3B00013504FF0FF3002B010BD00230022204672
:10D3C0000449009405F082F8031EEDDB0020F2E72B
:10D3D0000C00000031CD00002DE9F04F16464FF053
:10D3E000FF384FF0FF390A228FB05B0604460D4626
:10D3F000CDE90C89189F0B9203D4036F13F002033D
:10D400004BD000220023CDE90C2308A81EF0C6FC57
:10D41000DDE90C23DDE9088908A81EF0BFFCDDE981
:10D420000823CDE9062363680022009320460023E9
:10D43000284905F09DF8031E37DB4FF0000A0DF177
:10D440002C0B6168DDE90C23002F38D0CDE90223D5
:10D45000199B0491009332463B4629462046CDF85D
:10D4600004A019F0EFFE002826DADDE90C230146BE
:10D47000CDE90023204642464B46CDF808B0FFF7E1
:10D480007DFC002818DBDDE9062308A81EF0AAFCB5
:10D49000DDE90823CDE90C23D3E70CAA052105F02B
:10D4A00085F94FF4A0220023AFE71EF0C7FF0A4A18
:10D4B0005B4213504FF0FF300FB0BDE8F08FCDE965
:10D4C000002302913B4632462946204619F060FE71
:10D4D000C9E700BF555F02000C0000002DE9FF41C5
:10D4E0000D46164602A903AA1F46FDF71BFD04467A
:10D4F00068B1029B5B6A63B95F231EF09FFF4FF028
:10D50000FF34104A1350204604B0BDE8F0810923CF
:10D51000F3E703984FF0FF324FF0FF3318F016FD9A
:10D520000B9B324601930A9B29460093029B20469F
:10D53000D3F824803B46C0470446039818F008FD02
:10D54000E1E700BF0C00000073B50D4616466946C2
:10D5500001AAFDF7E7FC044660B1009B5B6B5BB979
:10D560005F231EF06BFF4FF0FF340C4A1350204630
:10D5700002B070BD0923F4E701984FF0FF324FF07D
:10D58000FF3318F0E3FC009B3246294620465B6BD4
:10D5900098470446019818F0DBFCE8E70C0000000F
:10D5A0002DE9F341074688461646FDF7D5FC051ED2
:10D5B00016DB3B6F980719D44FF0FF324FF0FF3363
:10D5C00069463846CDE9002318F00EFE041E0DDA38
:10D5D0002846FDF717FD1EF031FF384B64421C5002
:10D5E0004FF0FF35284602B0BDE8F081002200234D
:10D5F00007F1740013F04AFE044640B92846FDF7CF
:10D6000001FD1EF01BFF0B222C4B1A50E8E7743073
:10D610001EF00CFBA8B190F83730990711D5236F95
:10D62000284643F001032367FDF7ECFC204618F081
:10D63000D1FC204604F0C4FA1EF000FF71221F4BFB
:10D64000E3E7B4F8A0305A050ED51EF0F7FE7122BC
:10D650001A4B1A502846FDF7D5FC204618F0BAFCA4
:10D66000204604F0ADFABBE723F40073A4F8A03021
:10D67000B8F1000F0ED06EB132684046182A28BFAC
:10D68000182204F12C011EF05FFEA38D012B07D19F
:10D690000823336021462846094AFDF79BFCA1E791
:10D6A000022B01D11823F4E72846FDF7ABFC1EF04E
:10D6B000C5FE8622014B1A50CFE700BF0C000000C8
:10D6C00080CC02002DE9F04F154691B004461E466D
:10D6D0001A9F0191FFF774FA002D50D002284FF0E5
:10D6E000FF324FF0FF3340F00D817106CDE9062384
:10D6F00003D4236F13F002032FD000220023CDE9BF
:10D700000623DDE9068916F0020304F1740B009389
:10D7100039D0102200210AA81EF03DFE0423CDF8C6
:10D7200038B08DF8353001214B4642460AA816F034
:10D73000C5FB00F10B010B29034619D8AC4A0A417D
:10D74000D20715D458461EF06DFA824608BB1EF06B
:10D7500075FE0B22A74B1A500FE0042106AA2046A3
:10D7600005F024F8204606A918F03EFD031EC8DA8D
:10D770001EF064FE5B429F4A13504FF0FF3528466F
:10D7800011B0BDE8F08F42464B46584613F07EFD7F
:10D79000DBE7D0E90398002F4AD01B9B002B47D032
:10D7A000B4F89EB01C6819F048FF9AF83720520967
:10D7B0003A809AF837205209012A52D14FF0000ED0
:10D7C0001422072CCDE90AE274D950460AA91AF0AE
:10D7D00098F9044610B96FF068026DE050460B9955
:10D7E00019F07AFF0028F6D150469AF83A1019F04D
:10D7F00073FF0028EFD1E2687A605FFA8BFBBBF120
:10D80000110F07F1020466D108AA0A9208220AA998
:10D810000B9250461AF075F90028DCD0028822805D
:10D82000CAE903983A88012A61D108221B9B1A6031
:10D8300050461AF05CF8854228BF054604462A4641
:10D840005046019919F0F5FF002859D1009B002B93
:10D8500051D1504619F06EFE16F0200F18BF254624
:10D860008DE7022A40D14FF0000C2822172CCDE979
:10D870000AC21FD950460DEB02011AF042F90446C4
:10D880000028A8D050460B9919F026FF0028A2D1F5
:10D890005046BAF83A1019F01FFF00289BD104F146
:10D8A0000802391D183452F8040BA24241F8040B47
:10D8B000F9D1A2E76FF01502CAE9039852421EF0AF
:10D8C000BDFD4C49009B0A50002B7FF456AF5046DB
:10D8D00019F030FE51E7BBF1060F05D10AAA0892F4
:10D8E000142208A9099294E76FF08502E4E7022A5E
:10D8F00004D118229AE7CAE90398ADE78622DEE749
:10D900006922DCE7012840F08D80CDE9082374B955
:10D91000394940F25F13394A394818F057F9394804
:10D9200018F054F940F25F11344818F048F9B4F88F
:10D93000A030DF0708D52046FFF760F9022805D0A0
:10D9400080231EF07BFD16E70923FAE7700602D458
:10D95000236F990716D500220023CDE90823019BE8
:10D9600002A8CDE90535DDE90823002506F4807B12
:10D97000CDE90A231EF012FADDE90289069B53B9AC
:10D980002B460EE013F00503E9D10421204608AA36
:10D9900004F00CFFE3E7226F12F0040307D0636882
:10D9A0005B42002B23EAE37534DA5B42C9E7D20716
:10D9B000F7D4DDE90AA75AEA070311D13346204616
:10D9C00006AA05A918F024FB054428431CD0BBF186
:10D9D000000FD5D042464B460AA81EF003FACDE709
:10D9E00020460AA918F000FC031EE7DAD9E700BFB9
:10D9F0007EF7FFFF0C00000085EB020051EB0200F8
:10DA0000DCE202008DEB02005AEA0707DFD16FF07B
:10DA10000A03C6E7B3073FF5B2AE2946204619F020
:10DA200036FCACE6064940F2BF53064A064818F0F9
:10DA3000CDF8064818F0CAF840F2BF51014874E723
:10DA4000AB0B030090EB0200DCE202000BEC0200E7
:10DA50002DE9FF410D46164602A903AA1F46FDF710
:10DA600061FA044668B1029B9B6A63B95F231EF0AA
:10DA7000E5FC4FF0FF34104A1350204604B0BDE8D7
:10DA8000F0810923F3E703984FF0FF324FF0FF33A3
:10DA900018F05CFA0B9B324601930A9B29460093CF
:10DAA000029B2046D3F828803B46C0470446039893
:10DAB00018F04EFAE1E700BF0C0000002DE9F04F2E
:10DAC0000E464FF00008B346C24645469DB005904D
:10DAD00008A8144606931EF061F9DDE90823DDF875
